{
  "contractName": "ResponseContract",
  "abi": [
    {
      "inputs": [
        {
          "internalType": "uint256",
          "name": "_initialCost",
          "type": "uint256"
        }
      ],
      "stateMutability": "nonpayable",
      "type": "constructor"
    },
    {
      "anonymous": false,
      "inputs": [
        {
          "indexed": false,
          "internalType": "string",
          "name": "input",
          "type": "string"
        }
      ],
      "name": "ResponseRequested",
      "type": "event"
    },
    {
      "inputs": [],
      "name": "cost",
      "outputs": [
        {
          "internalType": "uint256",
          "name": "",
          "type": "uint256"
        }
      ],
      "stateMutability": "view",
      "type": "function",
      "constant": true
    },
    {
      "inputs": [],
      "name": "owner",
      "outputs": [
        {
          "internalType": "address",
          "name": "",
          "type": "address"
        }
      ],
      "stateMutability": "view",
      "type": "function",
      "constant": true
    },
    {
      "inputs": [],
      "name": "response",
      "outputs": [
        {
          "internalType": "string",
          "name": "",
          "type": "string"
        }
      ],
      "stateMutability": "view",
      "type": "function",
      "constant": true
    },
    {
      "inputs": [
        {
          "internalType": "string",
          "name": "_input",
          "type": "string"
        }
      ],
      "name": "inputString",
      "outputs": [],
      "stateMutability": "payable",
      "type": "function",
      "payable": true
    },
    {
      "inputs": [
        {
          "internalType": "string",
          "name": "_response",
          "type": "string"
        }
      ],
      "name": "registerResponse",
      "outputs": [],
      "stateMutability": "nonpayable",
      "type": "function"
    },
    {
      "inputs": [
        {
          "internalType": "uint256",
          "name": "_newCost",
          "type": "uint256"
        }
      ],
      "name": "setCost",
      "outputs": [],
      "stateMutability": "nonpayable",
      "type": "function"
    }
  ],
  "bytecode": "0x608060405234801561000f575f80fd5b50604051610bc4380380610bc4833981810160405281019061003191906100b5565b3360015f6101000a81548173ffffffffffffffffffffffffffffffffffffffff021916908373ffffffffffffffffffffffffffffffffffffffff16021790555080600281905550506100e0565b5f80fd5b5f819050919050565b61009481610082565b811461009e575f80fd5b50565b5f815190506100af8161008b565b92915050565b5f602082840312156100ca576100c961007e565b5b5f6100d7848285016100a1565b91505092915050565b610ad7806100ed5f395ff3fe608060405260043610610054575f3560e01c806313faede6146100585780633d11dc4f1461008257806344a0d68a146100aa5780637a7f01a7146100d25780638da5cb5b146100fc57806395d8cc9c14610126575b5f80fd5b348015610063575f80fd5b5061006c610142565b60405161007991906103c8565b60405180910390f35b34801561008d575f80fd5b506100a860048036038101906100a3919061052e565b610148565b005b3480156100b5575f80fd5b506100d060048036038101906100cb919061059f565b6101e9565b005b3480156100dd575f80fd5b506100e6610282565b6040516100f39190610644565b60405180910390f35b348015610107575f80fd5b5061011061030d565b60405161011d91906106a3565b60405180910390f35b610140600480360381019061013b919061052e565b610332565b005b60025481565b60015f9054906101000a900473ffffffffffffffffffffffffffffffffffffffff1673ffffffffffffffffffffffffffffffffffffffff163373ffffffffffffffffffffffffffffffffffffffff16146101d7576040517f08c379a00000000000000000000000000000000000000000000000000000000081526004016101ce9061072c565b60405180910390fd5b805f90816101e59190610944565b5050565b60015f9054906101000a900473ffffffffffffffffffffffffffffffffffffffff1673ffffffffffffffffffffffffffffffffffffffff163373ffffffffffffffffffffffffffffffffffffffff1614610278576040517f08c379a000000000000000000000000000000000000000000000000000000000815260040161026f9061072c565b60405180910390fd5b8060028190555050565b5f805461028e90610777565b80601f01602080910402602001604051908101604052809291908181526020018280546102ba90610777565b80156103055780601f106102dc57610100808354040283529160200191610305565b820191905f5260205f20905b8154815290600101906020018083116102e857829003601f168201915b505050505081565b60015f9054906101000a900473ffffffffffffffffffffffffffffffffffffffff1681565b6002543414610376576040517f08c379a000000000000000000000000000000000000000000000000000000000815260040161036d90610a83565b60405180910390fd5b7fdcdcbbaa5608e79da47903522cdd5f1f4e355cfe1b6ae095b7b88cc1ca412734816040516103a59190610644565b60405180910390a150565b5f819050919050565b6103c2816103b0565b82525050565b5f6020820190506103db5f8301846103b9565b92915050565b5f604051905090565b5f80fd5b5f80fd5b5f80fd5b5f80fd5b5f601f19601f8301169050919050565b7f4e487b71000000000000000000000000000000000000000000000000000000005f52604160045260245ffd5b610440826103fa565b810181811067ffffffffffffffff8211171561045f5761045e61040a565b5b80604052505050565b5f6104716103e1565b905061047d8282610437565b919050565b5f67ffffffffffffffff82111561049c5761049b61040a565b5b6104a5826103fa565b9050602081019050919050565b828183375f83830152505050565b5f6104d26104cd84610482565b610468565b9050828152602081018484840111156104ee576104ed6103f6565b5b6104f98482856104b2565b509392505050565b5f82601f830112610515576105146103f2565b5b81356105258482602086016104c0565b91505092915050565b5f60208284031215610543576105426103ea565b5b5f82013567ffffffffffffffff8111156105605761055f6103ee565b5b61056c84828501610501565b91505092915050565b61057e816103b0565b8114610588575f80fd5b50565b5f8135905061059981610575565b92915050565b5f602082840312156105b4576105b36103ea565b5b5f6105c18482850161058b565b91505092915050565b5f81519050919050565b5f82825260208201905092915050565b5f5b838110156106015780820151818401526020810190506105e6565b5f8484015250505050565b5f610616826105ca565b61062081856105d4565b93506106308185602086016105e4565b610639816103fa565b840191505092915050565b5f6020820190508181035f83015261065c818461060c565b905092915050565b5f73ffffffffffffffffffffffffffffffffffffffff82169050919050565b5f61068d82610664565b9050919050565b61069d81610683565b82525050565b5f6020820190506106b65f830184610694565b92915050565b7f4f6e6c7920746865206f776e65722063616e20706572666f726d2074686973205f8201527f616374696f6e0000000000000000000000000000000000000000000000000000602082015250565b5f6107166026836105d4565b9150610721826106bc565b604082019050919050565b5f6020820190508181035f8301526107438161070a565b9050919050565b7f4e487b71000000000000000000000000000000000000000000000000000000005f52602260045260245ffd5b5f600282049050600182168061078e57607f821691505b6020821081036107a1576107a061074a565b5b50919050565b5f819050815f5260205f209050919050565b5f6020601f8301049050919050565b5f82821b905092915050565b5f600883026108037fffffffffffffffffffffffffffffffffffffffffffffffffffffffffffffffff826107c8565b61080d86836107c8565b95508019841693508086168417925050509392505050565b5f819050919050565b5f61084861084361083e846103b0565b610825565b6103b0565b9050919050565b5f819050919050565b6108618361082e565b61087561086d8261084f565b8484546107d4565b825550505050565b5f90565b61088961087d565b610894818484610858565b505050565b5b818110156108b7576108ac5f82610881565b60018101905061089a565b5050565b601f8211156108fc576108cd816107a7565b6108d6846107b9565b810160208510156108e5578190505b6108f96108f1856107b9565b830182610899565b50505b505050565b5f82821c905092915050565b5f61091c5f1984600802610901565b1980831691505092915050565b5f610934838361090d565b9150826002028217905092915050565b61094d826105ca565b67ffffffffffffffff8111156109665761096561040a565b5b6109708254610777565b61097b8282856108bb565b5f60209050601f8311600181146109ac575f841561099a578287015190505b6109a48582610929565b865550610a0b565b601f1984166109ba866107a7565b5f5b828110156109e1578489015182556001820191506020850194506020810190506109bc565b868310156109fe57848901516109fa601f89168261090d565b8355505b6001600288020188555050505b505050505050565b7f506c656173652070726f766964652074686520657861637420616d6f756e74205f8201527f6f662045746865722e0000000000000000000000000000000000000000000000602082015250565b5f610a6d6029836105d4565b9150610a7882610a13565b604082019050919050565b5f6020820190508181035f830152610a9a81610a61565b905091905056fea26469706673582212201f38fbeaf85d977fbf599b5e4068788093d92e1ae1db1bcdd5dbe72f15c8b70764736f6c63430008140033",
  "immutableReferences": {},
  "source": "// SPDX-License-Identifier: MIT\r\npragma solidity ^0.8.1;\r\n\r\ncontract ResponseContract {\r\n    event ResponseRequested(string input);\r\n    \r\n    string public response;\r\n    \r\n    address public owner;\r\n    uint256 public cost;\r\n\r\n    constructor(uint256 _initialCost) {\r\n        owner = msg.sender;\r\n        cost = _initialCost;\r\n    }\r\n\r\n    modifier onlyOwner {\r\n        require(msg.sender == owner, \"Only the owner can perform this action\");\r\n        _;\r\n    }\r\n\r\n    function inputString(string memory _input) public payable {\r\n        require(msg.value == cost, \"Please provide the exact amount of Ether.\");\r\n\r\n        emit ResponseRequested(_input);\r\n    }\r\n\r\n    function registerResponse(string memory _response) public onlyOwner {\r\n        response = _response;\r\n    }\r\n    \r\n    function setCost(uint256 _newCost) public onlyOwner {\r\n        cost = _newCost;\r\n    }\r\n}\r\n",
  "sourcePath": "C:\\Users\\ahmed\\OneDrive\\Desktop\\VSCode\\onchain_bridge_data_service\\contracts\\ResponseContract.sol",
  "compiler": {
    "name": "solc",
    "version": "0.8.20+commit.a1b79de6.Emscripten.clang"
  },
  "schemaVersion": "3.4.14",
  "updatedAt": "2023-05-21T17:32:39.117Z",
  "networkType": "ethereum",
  "devdoc": {
    "kind": "dev",
    "methods": {},
    "version": 1
  },
  "userdoc": {
    "kind": "user",
    "methods": {},
    "version": 1
  }
}